:020000040800F2
:10000000C02A00204D020008655E0008DB4F000892
:10001000635E00080D1C0008216D00080000000050
:10002000000000000000000000000000D560000893
:10003000B922000800000000675E0008856400081F
:1000400067020008670200086702000867020008EC
:1000500067020008670200086702000867020008DC
:1000600067020008670200086702000867020008CC
:1000700067020008670200086702000867020008BC
:10008000511F0008F12100086702000867020008FC
:10009000670200086702000867020008670200089C
:1000A000670200086702000867020008670200088C
:1000B000670200086702000867020008670200087C
:1000C000670200086702000867020008670200086C
:1000D000670200088D6C0008996C0008156D000817
:1000E000670200086702000867020008670200084C
:1000F000670200086702000867020008670200083C
:10010000670200086702000867020008670200082B
:10011000116800081D6800089D6500086702000856
:100120006702000867020008FD2100086702000856
:1001300067020008000000000000000067020008DD
:1001400067020008670200086702000867020008EB
:100150006702000867020008092200086702000819
:1001600067020008670200086702000867020008CB
:10017000670200086702000800000000000000009D
:100180006702000800F002F800F050F80AA090E8BA
:10019000000C82448344AAF10107DA4501D100F042
:1001A00045F8AFF2090EBAE80F0013F0010F18BFBF
:1001B000FB1A43F0010318474C8C00006C8C0000C4
:1001C000103A24BF78C878C1FAD8520724BF30C883
:1001D00030C144BF04680C60704700000023002455
:1001E00000250026103A28BF78C1FBD8520728BF47
:1001F00030C148BF0B607047662908F07C836429D2
:1002000000F02081782900F05981732900F03185B0
:10021000002070471FB500F031FD040000200021D0
:1002200007F0E0FBE0601FBD10B510BD00F026FE3A
:100230001146FFF7EFFF06F063FE00F044FE03B443
:10024000FFF7F2FF03BC00F087FE0000094880477B
:1002500009480047FEE7FEE7FEE7FEE7FEE7FEE7A8
:10026000FEE7FEE7FEE7FEE704480549054A064BC0
:10027000704700009B65000885010008C02400202D
:10028000C02A0020C0260020C026002053EA020C0D
:1002900000F069802DE9F04B4FF00006002B1FBFE6
:1002A000B3FA83F503FA05F424FA05F65E4012BFAB
:1002B0001643B2FA82F502FA05F4C5F120051EBF15
:1002C00022FA05FC44EA0C04203556EA044C4FEAB5
:1002D000144418BF641C4FF000084FF0000990420E
:1002E00071EB030C39D3002919BFB1FA81F701FA78
:1002F00007F6B0FA80F700FA07F6C7F120071EBF2D
:1003000020FA07FC46EA0C062037B6FBF4FCA7EB04
:100310000507103F07F01F0BCBF120060CFA0BFB73
:100320002CFA06F644BFB3460026202FA4BF5E4633
:100330004FF0000B5BEA060C08BF4FF0010B19EB06
:100340000B09ABFB027C48EB0608C01B06FB02CC8A
:100350000BFB03CC71EB0C01C1E70B460246414697
:100360004846BDE8F08B13B54FF000004FF0000198
:10037000AFF30080BDE81C40704700000FB41CB50F
:10038000074B06AA7B4469460090059800F047FC9D
:100390000020694600F056FC1CBC5DF814FB000010
:1003A000BD08000070B5044685690068C10601D526
:1003B000302600E02026C00707D070BDD4E9012117
:1003C00030469047206A401C20626D1EF6D570BDF5
:1003D00070B5044685690078C00707D170BDD4E9BF
:1003E000012120209047206A401C20626D1EF6D516
:1003F00070BD70B50C460546012A05D028788006E8
:1004000000D5EA69002302E0012305E05B1C93426A
:1004100002D2E05C0028F9D1A869E618C01AA861E8
:10042000286A184428622846FFF7BCFF04E0D5E993
:10043000012114F8010B9047B442F8D32846FFF786
:10044000C7FF70BD2DE9F0410646002410687529EC
:10045000314616A510D0AFF30080002802DA4042E2
:1004600013A507E031688A0701D512A502E0490704
:1004700004D511A5012401E0AFF3008000210A2278
:1004800006F1240709E0B0FBF2FCB0FBF2F302FB3B
:100490001C00303078541846491C0028F3D12346FC
:1004A0002A463046BDE8F04100F04BB9000000009C
:1004B0002D0000002B0000002000000070B5044655
:1004C0000D4621461068AFF300802188090502D54A
:1004D0000F4A7A4402E00E4A7A440E32002104F1B7
:1004E000240305E000F00F060009965D5E54491CE8
:1004F0000028F7D120780023000704D5702D02D002
:1005000009B1022311322046BDE8704000F019B94C
:100510005E8800002DE9F05F894604464FF0000A2E
:10052000DFF824B1FB44C0F820A02046E1688847EA
:1005300000287DD0252806D0D4E901219047206AE3
:10054000401C2062F1E700255F462046E1688847AD
:100550002028064607DB312E05D2B81910F8200CEA
:1005600008B10543F1E7A80701D525F00405C4F853
:100570001CA00027C4F818A02A2E09D0304606F087
:100580008BFC38B304EB8708303EC8F8186019E0DC
:1005900059F8041B204604EB87029161E168884703
:1005A000012F064618D1E069002820DA25F0200541
:1005B0001DE0D8F8180000EB800006EB4000303852
:1005C000C8F818002046E1688847064606F064FC33
:1005D0000028EED1012F0AD02E2E08D12046E16846
:1005E00088477F1C0646022F45F02005C4DBA06922
:1005F000002803DA404245F00105A061E80701D078
:1006000025F01005A6B1A6F14100192802D8203620
:1006100045F400654A463146204625604D46FFF7C1
:10062000EBFD60B1012807D0ED1D25F0070000E0CB
:1006300007E000F1080978E705F1040975E730469D
:100640007AE7206ABDE8F09F3488000010B5431CAB
:1006500002E010F8011B71B18107FAD14FF00132AD
:1006600002C88C1A8C4314EAC211F9D0C01A0A06C7
:1006700003D0C01E10BDC01A10BD0A0401D0801ED8
:1006800010BD0902FCD0401E10BD10B5203AC0F0CC
:100690000B80B1E81850203AA0E81850B1E8185083
:1006A000A0E81850BFF4F5AF5FEA027C24BFB1E8C0
:1006B0001850A0E8185044BF18C918C0BDE8104031
:1006C0005FEA827C24BF51F8043B40F8043B08BF3A
:1006D0007047D20728BF31F8023B48BF11F8012B01
:1006E00028BF20F8023B48BF00F8012B70474FF0AD
:1006F000000200B5134694469646203922BFA0E872
:100700000C50A0E80C50B1F12001BFF4F7AF09077D
:1007100028BFA0E80C5048BF0CC05DF804EB89006E
:1007200028BF40F8042B08BF704748BF20F8022BB1
:1007300011F0804F18BF00F8012B704770477047C9
:1007400070472DE9F0470D4699469246044600F160
:1007500024080168880604D5E06921F010012160B1
:1007600000E00120A84201DD471B00E00027A1694D
:100770007A1902EB0900081AA0612078C00602D499
:100780002046FFF70FFE002608E0D4E901211AF801
:1007900006009047206A401C761C20624E45F4DB20
:1007A0002078C0060AD52046FFF7FCFD06E0D4E914
:1007B000012130209047206A401C2062381EA7F19A
:1007C0000107F4DC07E0D4E9012118F8050090479F
:1007D000206A401C2062281EA5F10105F3DC20469A
:1007E000FFF7F6FD2078000602D50220BDE8F0876D
:1007F0000120FBE770472DE9FF4F0C461E464FF0E6
:10080000FF378BB0D2E90001DDF860800A908A469C
:10081000C1F30A5505B93D46002108464FF00000D6
:10082000BAF1000F00F4400005DA00EB80004FF44D
:10083000400101EA50004FEA9059B9F1010F00DD83
:10084000B9460A9850EA4A000ED044F61050A5F274
:10085000FF3545432F14B8F1000F1ED07542291EF5
:100860001EDDC9F100021CE0B8F1010F4FF00000DD
:1008700001D0302103E0F24305E02154401CB04296
:10088000FBDB30460022002121540B99C1F808807F
:10089000C1E900200FB0BDE8F08FBD1B6D1CDEE785
:1008A0004A4600DA694206A800F072FA06AB93E8FD
:1008B000070003AB83E8070050460A9900F053FB9A
:1008C0008DE80700A0F500501F3800900398002D18
:1008D0000ADD42F21F014A460844002303A903909F
:1008E000684600F0BCFD09E0A0F500504A461F38FC
:1008F000002303A90390684600F0C6FD8DE80700B9
:100900000004000C03D04FF0FF30410800E0104617
:10091000B8F1000F03D00022009215461EE0751EAC
:1009200005D400F0AFF9303262556D1EF9D5B346EB
:100930000122084302D000227F1C04E020783028E6
:1009400001D100227F1E002A099784D01DE0112DBD
:1009500007DA00F097F9303262556D1C50EA010257
:10096000F5D1084302D00098C8B10EE00021681EFE
:1009700005E0235C625C63542254401E491C8142A2
:10098000F7DBAB46A81B401E0990002004F80B00C3
:100990000B98099AC0F80880C0E9002B7AE7112665
:1009A0004FF0000857E72DE9F04F88460446D21D66
:1009B00022F0070191B0D1E90001CDE90A0106F06A
:1009C00047FA02460B98C00F01D02D2007E020689F
:1009D000810701D52B2002E0202101EAC000032A73
:1009E000099001D0072A05DB03464146204600F066
:1009F0008FF90BE12078800601D5E06900E0062040
:100A0000B8F1650F814606D0B8F1660F18D0B8F17D
:100A1000670F70D131E00020B9F1110F009001DBB8
:100A2000112301E009F101030AAA01A90CA8FFF7AB
:100A3000E2FEDDE90C70002609F10105834647E07E
:100A400001204B4600904FF000470AAA01A90CA8CC
:100A5000FFF7D1FEDDE90DB00C995D46002610B917
:100A600009F101000D18B9EB050003D4C0F1FF3600
:100A700009F10105A5EB09002BE0B9F1010F01DA3D
:100A80004FF001090020B9F1110F0090484601DD37
:100A9000112300E003460AAA01A90CA8FFF7ABFE48
:100AA000DDE90C704D4600268346207800070AD405
:100AB000AB4500DA5D4601A8012D04DD411911F8AE
:100AC000011C302907D04F4502DA17F1040F04DA70
:100AD000012082460FE06D1EEEE7002F02DCED1BC9
:100AE0003E4403E0781CA84200DD7D1CB81B00F1E9
:100AF000010A4FF000472078000703D4AA4501DB24
:100B00004FF0FF3A0021B7F1004F0DF143088DF887
:100B1000431024D002202B23002F01DA7F422D2303
:100B20000A21021EA0F1010000DC5FB197FBF1FC7D
:100B300097FBF1F201FB1C7C17460CF1300C08F816
:100B400001CDEEE7A8F1010003702188090501D568
:100B5000452100E06521A0F1010800F8011C099879
:100B60000FA9A1EB0807FF1D00B10120411901EBFE
:100B7000EA70A1693844081A401EA0612078C006B6
:100B800002D42046FFF70EFC099828B1D4E90121D0
:100B90009047206A401C20622078C00622D520465B
:100BA000FFF700FC1EE0002E04DBB34502DD01A8C8
:100BB000805D00E03020D4E901219047206A401C8C
:100BC0002062761CAAF101005FEA000A0AD100F057
:100BD00055F8C0680168405CD4E901219047206A5B
:100BE000401C2062281EA5F10105DCDC07E0D4E9E9
:100BF000012118F8010B9047206A401C2062381E22
:100C0000A7F10107F3DC2046FFF7E2FB032011B058
:100C100041E6000001694A1C02610878704700B58E
:100C20008FB0CDE901310021059105497944CDE925
:100C3000031011466846FFF76DFC0FB000BD0000C1
:100C4000E5FFFFFF0A6802F8010B0A60704710B564
:100C5000436913B1AFF3008001E0FFF7CAFB012045
:100C600010BD127800F124010A7000224A7001229E
:100C7000EDE711684FF0FF32E9E7000000487047E8
:100C80007C24002030B5B0F10A024FEA900E71F1D9
:100C900000034EEA817EB0EB0E0061EB91014FEA5A
:100CA000101E4EEA017E10EB0E0041EB11114FEACF
:100CB000102E4EEA016E10EB0E0041EB11214FEAAF
:100CC000104E4EEA014E10EB0E0041EB1141401860
:100CD00041F100014FEAD00040EA41704FEAD101F2
:100CE00010EB80054FEA810444EA907444EB010460
:100CF0006D1944EB0404521BA3414FF0000348BF9D
:100D00000A3200D530BD401C41F1000130BD000069
:100D10002DE9F0411F46044603260168072A01F425
:100D2000006004DB08B116A505E016A503E008B1D4
:100D300015A500E015A521F010002060A069C01ED7
:100D4000A0610FB1401EA0612046FFF72BFB4FB101
:100D5000D4E9012138469047206A401C2062C01C1B
:100D6000206206E0206AFAE7D4E9012115F8010BB8
:100D70009047761EF8D22046FFF72AFBBDE8F081A7
:100D80004E414E006E616E00494E4600696E66002F
:100D90002DE9F047814616468AB0354878440DC89B
:100DA0008DE80D0032487844801C03AC0DC884E8FF
:100DB0000D0041F69B300844372190FBF1F290FB87
:100DC000F1F5A5F1800501FB12041B3C02D564423C
:100DD000012000E00020DFF898A080460027FA44B8
:100DE000AAF1BE0A0EE0E0070AD03246684607EBD9
:100DF000470101230AEB810100F046FB8DE8070063
:100E000064107F1C002CEED1194F7F44AE3F19E0D7
:100E1000E80715D007EB04100DF1180A90E80E0052
:100E20008AE80E00C068F04201D198190890324655
:100E3000012306A903A800F027FB03AB83E8070002
:100E40006D10641C002DE3D14FF00103324669465A
:100E5000B8F1000F03A802D000F001FB01E000F0A0
:100E600013FBC9E90001C9F808200AB0BDE8F08702
:100E70004C800000004870475C2400207546FFF756
:100E8000F9FFAE4605006946534620F00700854647
:100E900018B020B5FFF7E8F9BDE820404FF0000694
:100EA0004FF000074FF000084FF0000B21F0070152
:100EB000AC46ACE8C009ACE8C009ACE8C009ACE895
:100EC000C0098D46704710B50446AFF30080204638
:100ED000BDE81040FFF7B3B94FF0013C50F8042BC8
:100EE00051F8043B9A4221D1A2EB0C03934313EA3D
:100EF000CC1317D150F8042B51F8043B9A4215D16A
:100F0000A2EB0C03934313EACC130BD150F8042B40
:100F100051F8043B9A4209D1A2EB0C03934313EA24
:100F2000CC13DBD04FF00000704700BFD01A01BADD
:100F3000B1FA81F101F0180122FA01F0CB40C1F1C0
:100F40002001DBB2C0B2C01A2CFA01F3D11A9143CE
:100F500011EAC311E6D1704701491820ABBEFEE784
:100F60002600020070475FEA400C08BF91F0000FB6
:100F70004FEA8C234FEAC12243EA51514FEA1C50F9
:100F800018BF00F5F0404FEA300018BF41F00041B3
:100F90005FEA6C5C00F02980BCF1FF3F08BF40F0C5
:100FA00080407047130C06BF12044FF0100C4FF036
:100FB000000C130E04BF12020CF1080C130F04BF37
:100FC00012010CF1040C930F04BF92000CF1020CFF
:100FD000D30F04BF52000CF1010C11464FF0000278
:100FE000A0F11F00A0EB0C00704711F0004F08BFEC
:100FF000704731F000413FF4D5AF0B0C06BF090438
:101000004FF0100C4FF0000C0B0E04BF09020CF156
:10101000080C0B0F04BF09010CF1040C8B0F04BF6B
:1010200089000CF1020CCB0F04BF49000CF1010C3C
:10103000CCF12003A0EB0C0022FA03F302FA0CF22D
:1010400041EA030100F10100704720F07F4C80EA83
:10105000030023F07F47ACEB070303F57C5300F05C
:10106000004003F1FF032DE980494FEA154B09B415
:101070004FEA144325EA0B4E24EA03480FF20426F4
:1010800006EB132749083E785FEA320203FB066746
:10109000C7F5000707FB06F64FEA54374FEAD64676
:1010A00006F1020607FB066CCCF1005C4FEA1C4718
:1010B0002CEA074C07FB06F40CFB06F504EB15467F
:1010C0004FEA961634BF00204FF000404FEAD13768
:1010D00006FB07FC4FEA1C4C0CFB0BF7D21B03FB77
:1010E0000CF761EB07010CFB0EF7B0EB074072EB5E
:1010F00017420CFB08F734BFA2EB0742B2EB0742E2
:1011000061EB17414FEA0C444FEA910706FB07FCDD
:101110004FEA1C4C0CFB0BF7B0EBC74072EB57329D
:1011200003FB0CF734BFA2EBC742B2EBC74261EB43
:1011300057310CFB0EF7B0EBC70072EB57720CFB8C
:1011400008F734BFA2EBC702B2EBC70261EB5771DD
:10115000039F4FEA816141EA921104EBCC044FEA0C
:10116000D1374FEA826206FB07FC42EA90124FEA4F
:1011700080604FEA1C4C0CFB0BF7D21B03FB0CF7F7
:1011800061EB07010CFB0EF7B0EB074072EB174267
:101190000CFB08F734BFA2EB0742B2EB074261EB4E
:1011A00017414FEA8C554FEA910704EB9C2406FB4C
:1011B00007FC4FEA1C4C0CFB0BF7B0EBC74072EB83
:1011C000573203FB0CF734BFA2EBC742B2EBC74266
:1011D00061EB57310CFB0EF7B0EBC70072EB5772A7
:1011E0000CFB08F734BFA2EBC702B2EBC70261EBFE
:1011F000577115EB4C254FEA816141EA92114FEA94
:1012000082624FEAD13742EA901206FB07FC44F1B2
:1012100000044FEA80604FEA1C4C0CFB0BF7D21B1A
:1012200003FB0CF761EB07010CFB0EF7B0EB07407B
:1012300072EB17420CFB08F734BFA2EB0742B2EB8C
:10124000074261EB174115EB1C154FEA813141EA6A
:1012500092414FEA823242EA90424FEA80304FEAAE
:101260000C7644F1000448EA03434EEA0B484FF081
:10127000000EB2EB080C71EB030724BF624639463F
:101280004EEB0E0E4FF0000B0018524149414BEB54
:101290000B0BB2EB080C71EB03077BF1000B24BFC7
:1012A000624639464EEB0E0E4FF0000B00185241CD
:1012B00049414BEB0B0BB2EB080C71EB03077BF1D5
:1012C000000B24BF624639464EEB0E0E51EA020770
:1012D00018BF46F0010616EB0E7655F1000254F1E8
:1012E000000103D5BDE88901BDE80088BDE889019A
:1012F000BDE80048B619524141EB0101A3F10103D9
:10130000704780807F7E7D7C7B7A79787776767572
:101310007473727171706F6E6E6D6C6C6B6A6A69EA
:101320006868676666656464636362616160605F84
:101330005F5E5E5D5D5C5C5B5B5A5A5959585857FD
:101340005756565555555454535352525251515065
:1013500050504F4F4F4E4E4D4D4D4C4C4C4B4B4BB8
:101360004A4A4A49494948484847474747464646FE
:101370004545454444444443434343424242424139
:101380004141002B9C4630D477002BD01CB54FEA4E
:10139000370703B44FF010004FF01001BAF1000FFF
:1013A00006D0BCF1000FDCBF40F0080040F008019F
:1013B0004FF000000FBCBDE810400BF1010BBBF17A
:1013C000010F08BF5FEA170722BF12F1010211F1F6
:1013D00001014FF0004143F1000300F0004043EAF7
:1013E00000007047F9D35708D0E746EA064613F1E4
:1013F000400F4FEA16461FDD13F1200FDFBF1643E3
:101400000A46002120335B42BED0C3F1200746EAE2
:10141000064602FA07F74FEA164646EA0706C3F100
:10142000200722FA03F201FA07F721FA03F14FF03D
:10143000000342EA0702A7E746EA020646EA064632
:101440004FEA164646EA0106BCBF46EA0646360C97
:101450004FF000034FF000024FF0000194E72DE938
:10146000804C9A46934670B491E8380007C831EA38
:10147000400C48BF34EA430C03D5FFF7E6FDFFF705
:1014800080FFF0BCBDE8008C2DE9804C9A46934665
:1014900070B491E8380007C810F0804F08BF13F00F
:1014A000804F03D100F005F8FFF76BFFF0BCBDE8FB
:1014B000008C20F07F4780EA030023F07F4C07EB8D
:1014C0000C03A3F57C5300F00040A3F1FE0392F05F
:1014D000000F00F0B38095F0000F00F077802DE949
:1014E00001494FEA11404FEA144621EA004800FB47
:1014F00006FC24EA064708FB06F607FB08F800FB93
:1015000007F718EB06484CEB164C4FEA124B18EB5A
:1015100007484FEA15464CEB174022EA0B4E0BFBEF
:1015200006FC25EA06470EFB06F607FB0EFE0BFB44
:1015300007F71EEB064E4CEB164C4FF000061EEB69
:10154000074E4CEB174B18EB0B0840F1000018EB63
:101550000E0B58EB000840F100008F1A4FF000010D
:101560003CBFC943661B14BFB5EB040C00213CBF54
:10157000C943F61B4FEA17444EEA8E0E27EA04458C
:101580004FEA1C4704FB07622CEA074C05FB07F7F0
:101590000CFB05F604FB0CFC16EB074642EB17426E
:1015A00016EB0C4642EB1C421BEB060658EB020204
:1015B000414146EA9E0601D5BDE80189B61952416E
:1015C00041EB0101A3F10103BDE801894FEA144594
:1015D0004FEA114724EA054621EA074C05FB07F4C8
:1015E00006FB07F70CFB06F105FB0CFC11EB0741B2
:1015F00044EB17444FEA124711EB0C4144EB1C44F7
:1016000022EA074C05FB07F206FB07F70CFB06F680
:1016100005FB0CFC16EB074642EB174216EB0C469B
:1016200042EB1C456A1854F1000148BF7047B619D7
:10163000524141EB0101A3F10103704795F0000F06
:1016400037D04FEA11424FEA144721EA024624EA12
:10165000074C02FB07F106FB07F70CFB06F402FB45
:101660000CFC14EB074441EB17414FEA154714EB10
:101670000C4441EB1C4125EA074C02FB07F506FB35
:1016800007F70CFB06F602FB0CFC16EB074645EBD6
:10169000174516EB0C4645EB1C42121951F100019F
:1016A00048BF7047B619524141EB0101A3F1010354
:1016B00070474FEA14454FEA114724EA054621EAEC
:1016C000074C05FB07F106FB07F70CFB06F24FF092
:1016D000000605FB0CFC12EB074241EB174112EB35
:1016E0000C4251EB1C4148BF7047921841EB01017D
:1016F000A3F1010370470000F0B5244B244E0020F5
:101700005A7806F56471A1F56A7400BF00EB800792
:1017100001EB870736F8105027F8125054F8207064
:1017200094463D4444F82050401CC0B20628EDD3F6
:101730000CF10102D0B258700A2825D100275F7041
:101740004FEA070303EB8306012531F8262001EB5E
:10175000860C10463CF81560964200D2324686420E
:1017600000D930466D1CEDB20A2DF3D354F8235046
:10177000281A801A074AC00822F8130044F8237078
:101780005B1CDBB2062BDDD3F0BD0000080000209F
:10179000980000201C0400204B4910B5D1F8042308
:1017A00022F44032C1F80423D1F8042343681A43D9
:1017B000C1F8042301684A6822F480724A60016813
:1017C0004A68036942EA03224A6001684A6822F0D3
:1017D00040724A6001684A6883681A434A60016837
:1017E0008A6822F400628A6001688A68C3681A43C2
:1017F0008A60816A6FF07062D14201688A6822F063
:1018000070628A6001688A680CD0836A1A438A60B1
:1018100001688A6822F040528A6001688A68C36A57
:101820001A4301E022F040528A6001688A6822F07F
:1018300002028A6001688A68037E42EA43028A6083
:1018400090F82010002901684A6815D042F400621F
:101850004A6001684A6822F460424A6001684B6845
:101860004FF46044426A94FAA4F4B4FA84F4521E29
:10187000A24013434B6002E022F400624A60016818
:10188000CA6A22F47002CA620168CA6A838B0F4C6A
:1018900004EB03531A43CA6201688A6822F4007297
:1018A0008A6001688A6890F8303042EA43228A6090
:1018B00001688A6822F480628A6001688A684069E7
:1018C00042EA8020886010BD002001400000F0FF47
:1018D00070B5204D2868204E204C800722D500206E
:1018E00060801F4800F062FF81B220781D4A00EB43
:1018F000001002EBC00000F037F81A4A21780C3AC9
:1019000022F81100491CC8B20621B0FBF1F201FB1C
:101910001200207056F820006863A86840F08040EC
:10192000A86070BD6088401C80B26080B0F57A7F8E
:10193000F7D90B4801F00EF8207856F820006863BC
:10194000A86840F08040A860BDE87040044800F0FE
:101950009DBF000000200140FC8800080800002016
:10196000D4030020A400002002680A440260026838
:10197000037900EB4303DB88D21A0260027900EBA3
:101980004203521C0271D980017901F03F010171BB
:101990000068C0F38F1070470FB5EE238DF800304C
:1019A000B1238DF8013060238DF80230030A8DF8E1
:1019B0000400080A8DF805008DF806108DF8033034
:1019C000D0788DF8070090788DF8080050788DF861
:1019D000090010788DF80A00FC21FF208DF80C100A
:1019E0008DF80D008DF80B008DF80E0000220F21F0
:1019F000684605F0EBF90FBD10B585B0EE248DF803
:101A00000040B1248DF8014060248DF80240040AA2
:101A10008DF80400080A8DF805008DF806108DF881
:101A20000340D0788DF8070090788DF80800507842
:101A30008DF8090010788DF80A00D8788DF80B0021
:101A400098788DF80C0058788DF80D0018788DF87E
:101A50000E00FC21FF208DF810108DF811008DF87C
:101A60000F008DF8120000221321684605F0AEF930
:101A700005B010BD002102E00A38C0B2491C0A2896
:101A8000FAD2090740EA11607047000030B50E48ED
:101A90004179FF2917D1002141710C4C007921189F
:101AA000801E11F8012C11F8021C01EB02218DB2ED
:101AB000C1B2204604F0BAF9A84204D104F2F251AE
:101AC000207981F82E0030BD14000020CE180020AF
:101AD00010B52C4C88B0A08D062850D094F82E104C
:101AE0000A2901D2052210E0192901D204220CE0B2
:101AF000322901D2032208E04B2901D2022204E05C
:101B0000632901D2012200E00022042100F0BBF889
:101B1000EE208DF80000B1208DF8010010208DF826
:101B20000200A08D8DF80400010A00208DF8050048
:101B30008DF803100E208DF8060094F82E206C46C8
:101B400011A1E01DFEF71AFCE01DFEF77FFDC01D90
:101B5000C0B225212154401CC0B2FF212154401C99
:101B6000C0B2FC222254401CC0B200222154401CAE
:101B7000C0B22154401CC1B2684605F027F908B034
:101B800010BD0000C01E00202564000070B51B4C75
:101B9000207E002831D01A4D1A4EE879401CE87199
:101BA000C0070BD000222221104604F094FA3046E0
:101BB000BDE870400122102101F00DBB012222215D
:101BC000002004F088FA1048007820B1002210218B
:101BD000304601F000FB207E401E10F0FF00207612
:101BE0000BD10122E871114600F04DF8BDE87040BC
:101BF00000222221104604F06EBA70BD6C1D002038
:101C0000140000200004024002000020FEE710B58E
:101C100085B0EE248DF80040B1248DF80140642495
:101C20008DF80240040A8DF80400080A8DF80500BA
:101C30008DF80610180E8DF80700180C8DF80800A6
:101C4000180A8DF809008DF80A30100E8DF80B0077
:101C5000100C8DF80C00100A8DF80D00FC21FF20EF
:101C60008DF810108DF80E208DF811008DF80F00F2
:101C70008DF812008DF8034000221321684605F00C
:101C8000A5F805B010BD00B585B0EE238DF8003085
:101C9000B1238DF8013023238DF80230030A8DF82B
:101CA0000400080A8DF805008DF80610FF208DF855
:101CB0000800FC218DF809108DF80A008DF8072026
:101CC0008DF80B008DF8033000220C21684605F0DA
:101CD0007DF805B000BD000030B51B4C0125207813
:101CE000012804D100220121062004F0F4F9207813
:101CF00003281CD100200146221852780AB1217015
:101D000016E0401CC0B20328F6D3217085B12170C3
:101D100000220121062004F0DEF92121062000F036
:101D2000F3F8012000F014F808490120888530BD3F
:101D300001221146062004F0CEF9BDE830402121F1
:101D4000062000F0E1B800002C000020C01E00209A
:101D50000EB5EE218DF80010B1218DF80110002193
:101D60008DF80210010A8DF80400FF208DF8031091
:101D70008DF80500FC218DF806108DF807008DF810
:101D8000080000220921684605F020F80EBD0EB5B6
:101D9000EE238DF80030B1238DF8013010238DF83B
:101DA0000230030A8DF80400080A8DF805008DF84A
:101DB0000610FF208DF80800FC218DF809108DF821
:101DC0000A008DF807208DF80B008DF803300022F3
:101DD0000C21684604F0FAFF0EBD00000A4A536861
:101DE00038B1581840F6B8315060884206DD51606D
:101DF00004E0581A506001D50020506000232021D3
:101E00001846121D00F024B8C01E002010B50D4C5D
:101E10000200E06806D006F061FA0B49E0608842F3
:101E200006DC06E006F0F2FC0849E060884200DAD1
:101E3000E160044A01230C321D21BDE8104000205E
:101E400000F006B8C01E0020000020420000F04153
:101E500030B591B0EE248DF80040B1248DF80140EA
:101E600010248DF80240040A8DF80400080A8DF849
:101E700005008DF803408DF806108BB11068012B1A
:101E800008D006F0FFF90B4602461AA10DA8FEF78E
:101E900075FA0AE006F0F6F90B46024617A1F5E7D7
:101EA000126818A10DA8FEF769FA0DA8FEF7CEFB7F
:101EB000C2B2002069460DAB04E01C5C0D18401C4A
:101EC000EC71C0B29042F8D3C01DC0B2FF220A54D8
:101ED000401CC0B2FC230B54401CC0B20A54401C2E
:101EE000C0B20A54401CC1B20022684604F06EFF22
:101EF00011B030BD252E326600000000252E31665F
:101F000000000000256400000EB5EE228DF80020D0
:101F1000B1228DF8012010228DF80220020A8DF8DE
:101F2000040000208DF805008DF80610FC21FF202C
:101F30008DF808108DF809008DF803208DF8070042
:101F40008DF80A0000220B21684604F03FFF0EBD09
:101F50002DE9F84FA04CA24DA04EE06B0090A04F91
:101F600001689E489D4ADFF87492DFF874A2DFF89A
:101F70006CB2DFF86CE29A4B483860351836183787
:101F8000A9F130090AF1780A0BF1300B4FF4006C1B
:101F90000EF1300E914226D9904A543A29E0B142CE
:101FA00036D100BF4FF020080AE0594537D1E0464E
:101FB00006E000BF4FF4001802E000BF4FF00068D9
:101FC00012EA080FDFF81C827ED0844A914259D968
:101FD000994205D0814203D0A94201D0B14233D108
:101FE0004FF0200C4BE07E4AA832914203D97B4A45
:101FF000583A126805E07A4A483291427A4AF8D94A
:1020000052689942CED08142CCD0A942CAD0C6E70C
:10201000B942CCD04945CAD05145C8D0C5E7714571
:10202000C8D0DFF8B881A8F118084145C2D0DFF860
:10203000B08108F190084145BCD0DFF8A08108F1DB
:1020400048084145BAD1B5E7B94218D0494516D03C
:10205000514514D0594512D071450BD05F481838FE
:10206000814207D05E489030814203D05B484830BF
:10207000814202D14FF4001C01E04FF0006C574840
:102080004C382DE0564AA83291422CD9994205D0BD
:10209000814203D0A94201D0B14202D14FF0200CBD
:1020A0001CE0B9421AD0494518D0514516D05945BF
:1020B00014D071450DD049481838814209D048489C
:1020C0009030814205D000E07CE0444848308142B5
:1020D00002D14FF4001C01E04FF0006C3F48503833
:1020E000C0F800C056E03E4A4832914229D9994290
:1020F00005D0814203D0A94201D0B14202D14FF0B4
:10210000200C1AE0B94218D0494516D0514514D0D8
:10211000594512D071450BD030481838814207D04C
:102120002F489030814203D02C484830814202D160
:102130004FF4001C01E04FF0006C2B48C0F80CC0BD
:1021400028E0994205D0814203D0A94201D0B14292
:1021500002D14FF0200C1AE0B94218D0494516D0F0
:10216000514514D0594512D071450BD01B48183831
:10217000814207D01A489030814203D01748483036
:10218000814202D14FF4001C01E04FF0006C164870
:10219000C0F808C0204602F05DFBE06B00684068B4
:1021A000C0F1400081B2A06A05F0E6FB4022414642
:1021B000204602F07FFE0D4800680C48001F0068B2
:1021C000BDE8F88F009800F06FFC41462046BDE85E
:1021D000F84F402202F06EBED42200205864024024
:1021E000106002401C2400200060024004440040B3
:1021F0000148806B00F058BCD4220020014800F058
:1022000053BC000058200020014800F04DBC0000E5
:10221000B820002001681823CAB2103AB2FBF3F2CA
:10222000054B6FF30901032A9B5CC36500D9091DA7
:1022300081650846704700001489000810B5014602
:1022400000208B698A6A4FF0C07453B1B3F5005F08
:1022500015D072B1012A0CD0022A0AD0032A09D162
:1022600004E01AB1012A06D0022A03D1C96AC901C1
:1022700000D5012010BDC96AA142FAD010BD002AC4
:10228000F7D0012AF2D0022AF3D0032AF3D010BDEE
:1022900030B50468256825F48025256004686360EE
:1022A0008368402B036803D099600068C26030BD2A
:1022B0009A600068C16030BD704772B6FEE70000EA
:1022C0000448C178002904D18078012801D000F0A9
:1022D000B3B87047140000202DE9F047DFF8F8A0EC
:1022E0009EB09AF80300FF2873D13C4E7078B17805
:1022F00001EB0020C4B2304603F07EFD311911F825
:10230000011C884256D1F078252802D03F2855D1AB
:102310000EE0F07BB17B01EB0020717B01EB002034
:10232000317B01EB00222EA104A8FEF727F845E03F
:10233000304CB0682060D6F80D0060608146D6F859
:102340001200A060D6F81700E060F569256196F8E4
:10235000210006F07BF9284906F02EF8606105F0AF
:1023600091FF07468846284605F08CFF05460E4635
:10237000484605F087FF8DE8E0010B4602461FA1A5
:1023800004A8FDF7FBFF27496069084426498842F5
:1023900014D2207E032548B9002201211046FFF700
:1023A00072FC01222221002003F095FE257600F028
:1023B00079F803E01DA104A8FDF7E0FF04A8FEF7EB
:1023C00045F9C1B2012204A804F000FD00218AF8F9
:1023D00003101EB0BDE8F087140000207418002020
:1023E000B4ABB8D0C6F7CFB5C1D0BAC53A25640DE5
:1023F0000A0000006C1D002000002041C1F7C1BF91
:102400003A252E31666D6C2F6D696E2CCEC2B6C822
:10241000252E3166A1E62CC6F8C5DD252E32666D67
:102420006D0D0A00F5285CC3F5281C05D0A3D1E981
:10243000CAA7B0DC0D0A000070B5164CF1200125CA
:102440002070002060700E20A0703F20E0700B20F4
:10245000207165710420A0718120E07182202072BA
:10246000832060728420A0728820E0722A2020736A
:10247000204603F0C1FC60730122D102064800F03F
:10248000AAFE064821460E228570BDE87040044829
:1024900002F05CBD28070020000802401400002064
:1024A000381F002010B588B0EE208DF80000B12054
:1024B0008DF8010010208DF8020000208DF8040036
:1024C0008DF803008DF8050022208DF806004420C9
:1024D0008DF807001148406905F0D4FE02460B460E
:1024E0006C460FA1E01DFDF749FFE01DFEF7AEF8B9
:1024F0000830C0B2FF212154401CC0B2FC2222543B
:10250000401CC0B200222154401CC0B22154401CC7
:10251000C1B2684604F05AFC08B010BD6C1D002022
:10252000252E3266000000000CB5EE208DF800006C
:1025300082208DF80100FF208DF80200FC218DF82B
:1025400004008DF803108DF805000022062168466E
:1025500004F03CFC0CBD00002DE9F04100264FF4D6
:102560000041384800F02AFEFF27374C002560B1B3
:10257000E5702078FF2814D12079401CC0B220716A
:1025800002280ED9257125700AE02571207840B9FE
:10259000E078401CC0B2E070022802D9E5702770D4
:1025A000FF264FF48061294800F008FE60B1657194
:1025B0006078FF2814D1A079401CC0B2A071022815
:1025C0000ED9A57165700DE0A571607840B960798C
:1025D000401CC0B26071022802D96571677001E0C9
:1025E000002E2CD0617820781A4E0143184812D062
:1025F0000122102100F0EFFD30780221001FC2B24D
:1026000032700020FFF73FFBA570BDE8F0410421C8
:10261000114802F003B80022102100F0DCFD3078F0
:102620000221001DC2B232700020FFF72CFB0220F5
:10263000A070BDE8F0410421074801F08BBFBDE860
:10264000F08100000000024000000020000802406D
:1026500000040240C01E00201805002078B50024A8
:10266000009490F83C20012A19D0012280F83C20E7
:102670000A6807230568092A13D9EE680A3A02EBAB
:10268000420293409E43EE600B788A680A3B03EB5C
:1026900043039A400368DD682A43DA6010E00220B1
:1026A00078BD2E6902EB420293409E432E610A7868
:1026B0008B6802EB42029340026815692B43136159
:1026C0004A681F23072A13D205686E6B521E02EB5D
:1026D000820293409E436E630B790A885B1E92B21E
:1026E00003EB83039A4003685D6B2A435A6327E038
:1026F00005680D2A12D22E6BD21F02EB8202934084
:102700009E432E630B790A88DB1F92B203EB83038F
:102710009A4003681D6B2A431A6311E0EE6A0D3A72
:1027200002EB820293409E43EE620B790A880D3BD6
:1027300092B203EB83039A400368DD6A2A43DA62AC
:10274000174A0368934208D10B68122B05D1D2F8BF
:10275000043343F48003C2F80433036893421AD16C
:102760000B68102B01D0112B15D1D2F8043343F490
:102770000003C2F80433096810290CD109490A4A38
:102780000968B1FBF2F101EB8101490000E0491E4B
:1027900000910029FBD180F83C40002078BD00006A
:1027A000002001406400002040420F000068C06C1F
:1027B000704770B504004FF0000503D0206C002670
:1027C00010B107E0012070BD204600F01DF86664DE
:1027D00084F83C60206CC00610D4206C20F4885033
:1027E00040F0020020642046FEF7D6FF6664206CAD
:1027F00020F0020040F00100206400E0012584F890
:102800003C60284670BD000030B587B004461421F6
:102810006846FDF76CFF1949206888422CD118489A
:102820000024016841F480710160006800F4807048
:10283000059013481438016841F0040101600168F3
:1028400001F004010591016841F001010160006897
:10285000032500F0010005902F20CDE90005694611
:102860000294084800F066FB2020CDE90005694687
:102870000294054800F05EFB07B030BD0020014027
:1028800044380240000802400000024018B5002110
:10289000009190F83C20012A07D0012280F83C20CA
:1028A00002689368DB0702D011E0022018BD93682C
:1028B00043F001039360244A244B1268B2FBF3F205
:1028C00002EB420200E0521E0092002AFBD1026895
:1028D0009368DB072ED0036C40F20164A34343F4FA
:1028E0008073036453685B0505D5036C23F40053C0
:1028F00043F480530364036CDB0404D5436C23F07E
:102900000603436400E0416480F83C106FF022014C
:1029100011600F49D1F804230068D20601D0884223
:1029200010D1816811F0405F0CD1816841F0804185
:10293000816007E0016C41F010010164416C41F0DD
:1029400001014164002018BD6400002040420F00D6
:102950000020014090F83C1001290CD0012180F8A2
:102960003C1001688A6822F001028A600168896867
:10297000C90702D007E002207047016C21F488519A
:1029800041F001010164002180F83C1008467047C5
:102990002DE9F0410446876D00F022FC064694F8CC
:1029A00035000025022806D08020606584F8345068
:1029B0000120BDE8F0812068016821F01601016066
:1029C0002068416921F080014161206C08B9A06C48
:1029D00020B12068016821F00801016020680168C9
:1029E00021F0010101600CE000F0FAFB801B0528DA
:1029F00007D920206065032084F8350084F834501E
:102A0000D7E720680068C007EED194F85C103F203B
:102A10008840B860012084F8350084F834500020E4
:102A2000C7E790F83510022903D0802141650120C5
:102A30007047052180F835100068016821F0010118
:102A400001600020704770B504002BD094F8350069
:102A5000022826D02068016821F001010160206869
:102A60000025056020684560206885602068C56095
:102A7000206805612168212048612046FFF7CAFBD4
:102A8000E56325646564A564E564256594F85C20C8
:102A90003F2191408160656584F8355084F8345059
:102AA000002070BD012070BD2DE9F84304464FF0B1
:102AB0000009CDF8009063484FF41651A56D0068E9
:102AC000B0FBF1F72E6894F85C10082000FA01F1D1
:102AD00031420FD021680A6852070BD50A6822F0EC
:102AE00004020A6094F85C108840A860606D40F0B1
:102AF0000100606594F85C104FF0010808FA01F0DD
:102B0000304208D021684969090604D5A860606D83
:102B100040F00200606594F85C1004208840304268
:102B200008D021680968890704D5A860606D40F065
:102B30000400606594F85C1010208840304218D082
:102B400021680968090714D5A8602068016849034D
:102B500004D50068000308D5A16C07E00168C90529
:102B600003D4016821F008010160216C09B12046FD
:102B7000884794F85C1020208840304231D021688A
:102B80000968C9062DD5A86094F835000528206885
:102B9000016806D0490347D5006800031DD4616C65
:102BA0001CE021F0160101602068416921F08001DC
:102BB0004161206C08B9A06C20B12068016821F047
:102BC0000801016094F85C103F208840A86084F8F8
:102BD000358084F83490216D1FE0E16B09B1204607
:102BE0008847606D00282BD0606DC00714D0052089
:102BF00084F835002068016821F001010160009827
:102C0000401C0090B84203D820680068C007F6D185
:102C100084F8358084F83490E16C002910D001B03C
:102C20002046BDE8F04308470168C905D5D40168CE
:102C300021F01001016084F8358084F83490CCE7ED
:102C4000BDE8F883640000202DE9F041044600F05F
:102C5000C7FA06465CB1022084F83500002584F8E6
:102C600034502068016821F0010101600DE001206D
:102C7000BDE8F08100F0B4FA801B052805D92020BA
:102C80006065032084F83500F2E720680068C0071B
:102C9000F0D12268116820480140D4E901031843AB
:102CA000D4E903363343184363691843A3691843CF
:102CB000E3691843236A18430843616A042903D16E
:102CC000D4E90B1319430843106020684069666A11
:102CD00020F0070130460E43012704280CD1A06ADA
:102CE0000643E06A40B12046FFF7A8FA20B1402031
:102CF000606584F83570BAE7206846612046FFF7C2
:102D000089FA94F85C203F2191408160656584F8E0
:102D100035700020ACE700003F8010F02DE9F04155
:102D20000446866D90F83400002501280DD001205E
:102D300084F8340094F835700020012F07D084F80F
:102D4000340002252846BDE8F0810220FBE7022777
:102D500084F8357060652046FFF79AFA94F85C10A5
:102D60003F208840B0602068016841F01601016092
:102D7000206C20B12068016841F0080101602068E2
:102D8000016841F001010160DCE7000031B500F0AD
:102D900027FA009C0546601C02D0044800780444D1
:102DA00000F01EFA401BA042FAD338BD58000020A4
:102DB0002DE9F84F00230126DFF84CC10F279CE0D6
:102DC00006FA03F414EA01027DD023F003056544FA
:102DD000AA46D5F808989D074FEA157E07FA0EF522
:102DE00005EA090B0095494DA84202D14FF00008B1
:102DF00031E0474DA84202D14FF001082BE0454D8C
:102E0000A84202D14FF0020825E0434DA84202D16A
:102E10004FF003081FE0414DA84202D14FF00408D3
:102E200019E03F4DA84202D14FF0050813E03D4D97
:102E3000A84202D14FF006080DE03B4DA84202D156
:102E40004FF0070807E0394DA84202D14FF00808BB
:102E500001E04FF0090808FA0EF8D84526D1DFF84E
:102E6000D080D8F8009029EA0209C8F8009008F14B
:102E70000408D8F8009029EA0209C8F80090DFF8A1
:102E8000B08008F10C08D8F8009029EA0209C8F8C7
:102E90000090A8F10408D8F800509543C8F80050F5
:102EA000009ADAF808589543CAF80858D0F8008014
:102EB0004FEA4309032202FA09F228EA0208C0F89D
:102EC0000080DD0800E017E000EB8505AA46D5F894
:102ED00020804FEA43794FEAD96907FA09F528EAD1
:102EE0000508CAF82080C5689543C5604568A543B4
:102EF00045608468944384605B1C31FA03F27FF47C
:102F00005FAFBDE8F88F00000030014000000240D4
:102F10000004024000080240000C02400010024081
:102F20000014024000180240001C02400020024031
:102F3000003C01402DE9F04FDFF8509200230126BC
:102F40000325A9F1040B85B00F2709F1040AABF1A1
:102F5000040E12E1224606FA03F422407ED091F8D4
:102F600004C00CF0030CBCF1010F02D0BCF1020F45
:102F700026D1D0F80880CDF800804FEA430805FA42
:102F800008FCCDF81080DDF8008028EA0C08CDF8A8
:102F90000080D1F80CC0DDF810800CFA08FCDDF8D8
:102FA00000804CEA080CC0F808C0D0F804C02CEA35
:102FB000040C0C79C4F300149C4044EA0C044460F3
:102FC0000C79E443A40712D0C4684FEA430CCDF84F
:102FD00008C005FA0CFC24EA0C04D1F80880DDF8DE
:102FE00008C008FA0CF848EA0408C0F80C800C790C
:102FF00004F00304022C16D1DC0800EB840CCDF89D
:1030000008C0DCF820C05C074FEAD46807FA08F46F
:103010002CEA040C0C6904FA08F444EA0C04DDF808
:1030200008C0CCF8204004684FEA430805FA08FCC1
:1030300024EA0C0491F804C00CF0030C0CFA08FC10
:103040004CEA040CC0F800C04C6814F4403F05D0B2
:103050004F4CD4F800C04CF4804C00E08CE0C4F835
:1030600000C0246823F0030C04F480440094494C0D
:1030700064440294D4F808484FEA837C4FEA1C78F1
:1030800007FA08FC24EA0C04DFF80CC1604502D101
:103090004FF0000C39E0DFF804C1604502D14FF079
:1030A000010C32E0DFF8F8C0604502D14FF0020CAD
:1030B0002BE0DFF8F0C0604502D14FF0030C24E0B4
:1030C000DFF8E4C0604502D14FF0040C1DE0DFF8EA
:1030D000DCC0604502D14FF0050C16E0DFF8D0C02F
:1030E000604502D14FF0060C0FE0DFF8C8C0604524
:1030F00002D14FF0070C08E0DFF8BCC0604502D1F8
:103100004FF0080C01E04FF0090C0CFA08FC4CEAF7
:10311000040C029CC4F808C8D9F80040CC46D1F889
:10312000048094435FEAC82800D51443CCF80040DB
:10313000DAF80040D446D1F8048094435FEA882846
:1031400000D51443CCF80040DBF80040DC46D1F851
:10315000048094435FEA883800D51443CCF80040DB
:10316000DEF80040F446D1F8048094435FEAC838A2
:1031700000D51443CCF800405B1C0A681446DA40C2
:103180007FF4E8AE05B0BDE8F08F0000083C0140D8
:103190004438024000300140000002400004024078
:1031A00000080240000C02400010024000140240DF
:1031B00000180240001C0240002002400069084044
:1031C00000D001207047426921EA02030A4043EA25
:1031D0000241816170470AB1816170470904FBE7D0
:1031E000014880687047000058000020024881684C
:1031F0000278114481607047580000200B4810B5D8
:10320000016841F400710160016841F4806101606E
:10321000016841F480710160032000F07FF80F2005
:1032200000F006F800F024F8002010BD003C024039
:1032300070B50D4D04464FF47A712878B1FBF0F06B
:103240000A490968B1FBF0F000F0B7FE48B9102C4C
:1032500007D200222146501E00F040F800206C608A
:1032600070BD012070BD00005800002064000020E7
:103270000A4808B5016841F480410160006800F423
:10328000804000900548001F016841F080510160B6
:10329000006800F08050009008BD000044380240F3
:1032A00000280DDB00F01F02012191404009800041
:1032B00000F1E020C0F88011BFF34F8FBFF36F8F94
:1032C0007047002809DB00F01F02012191404009EE
:1032D000800000F1E020C0F800117047F0B40E4B00
:1032E0001B680C46C3F30223C3F10705042D00D964
:1032F0000425191D072901D2002300E0DB1E012649
:1033000006FA05F1491E214099409E40761E16405E
:103310003143F0BC03F0B0BD0CED00E0064900F015
:10332000070208684FF6FF03184040EA0220034AEC
:1033300010430860704700000CED00E00000FA0543
:103340002DE9F843054600684FF00109C1074FF029
:10335000000601D1082833D1DFF82481C8F868605D
:10336000FFF73EFF0746474C05E000BFFFF738FF79
:10337000C01B022863D820680001F7D447F6C0714B
:1033800091FAA1F16868B1FA81F188404FF0E0420A
:1033900092FAA2F2A968B2FA82F29140084339493E
:1033A00084310860C8F86890FFF71AFF074604E008
:1033B000FFF716FFC01B022841D820680001F7D58F
:1033C0002878400752D52F484030016841F080519D
:1033D000016000682C4C00F080500090206840F4A0
:1033E00080702060FFF7FCFE074604E0FFF7F8FE60
:1033F000C01B022823D82068C005F7D5214C7034A3
:10340000206810F4407020D0A98901F440718142F5
:103410001BD020681D4920F44070C1F800900E6058
:1034200020602068C00710D0FFF7DAFE064641F2A0
:10343000883707E0FFF7D4FE801BB84202D903208B
:10344000BDE8F88320688007F4D5E9680D48C1F32A
:1034500001220830032A0BD0016821F4F811016021
:103460002068A989C1F30B01084320600020E7E729
:103470000268074B22F4F81219400A430260EFE792
:10348000000047420038024000700040400E4742B2
:10349000FFFCFF0F2DE9F0470E46050063D0DFF873
:1034A0001C81D8F80000F7B200F00F00B04207D23C
:1034B00088F80070D8F8000000F00F00B04252D138
:1034C00028683F4C810712D5400703D5206840F497
:1034D000E05020602878000703D5206840F4604061
:1034E00020602068A96820F0F00008432060287858
:1034F000C0072BD0324968680839012810D0096804
:10350000022810D0890700292DDA216821F0030153
:1035100001432160FFF764FE814641F2883A0EE0E4
:1035200009688903EFE78901EDE700BFFFF758FE5F
:10353000A0EB0901514502D90320BDE8F0872068BE
:10354000696800F00C00B0EB810FEFD1D8F80010E3
:10355000404601F00F01B14207D90770006800F042
:103560000F00B04201D00120E7E72878400705D5D9
:103570002068E96820F4E0500843206028780007BC
:1035800006D52068296920F4604040EAC100206027
:1035900000F04EF82168F02292FAA2F201F0F00158
:1035A000B2FA82F2D140074A515CC840064908602D
:1035B00006480068FFF73CFE0020BEE7003C0240E2
:1035C000083802401C890008640000205C000020CC
:1035D00008480949006809684FF4E05292FAA2F2DB
:1035E00001F4E051B2FA82F2D140044A515CC84081
:1035F0007047000064000020083802402C89000851
:1036000008480949006809684FF4604292FAA2F23A
:1036100001F46041B2FA82F2D140044A515CC840E0
:103620007047000064000020083802402C89000820
:10363000154810B5006810F00C02144813D0411062
:10364000042A0FD0082A0ED10F4C241F22682368A9
:1036500002F03F025B0207D52068C0F38810A0FB90
:10366000010106E0084610BD2168C1F38811A1FBE5
:1036700000010023FCF70AFE2168C1F30141491C47
:103680004900B0FBF1F010BD083802400024F400FE
:103690002DE9F84F04007BD0DFF828B32078ABF198
:1036A0000406C007A6F1040536D0DBF80010584622
:1036B000C1F38101012907D00068C0F3810002280D
:1036C00009D13068400206D52868800324D5606897
:1036D0000028E0D020E0BB492079891F087060688D
:1036E00068B1FFF77DFD074605E000BFFFF778FDF5
:1036F000C01B642876D828688003F7D50CE0FFF754
:103700006FFD074605E000BFFFF76AFDC01B642898
:10371000F0D828688003F7D42078DFF8AC828007DF
:103720004FF0000944D5DBF80010584611F00C0F9B
:103730004FF0F80A07D00068C0F38100022809D1D1
:103740003068400206D42868800715D5E068012853
:103750001ED111E0E068E0B10120C8F80000FFF7D9
:103760003FFD074605E000BFFFF73AFDC01B0228FA
:10377000C0D828688007F7D528689AFAAAF2216984
:10378000B2FA82F220F0F8009140084328600FE07E
:1037900013E1C8F80090FFF723FD074605E000BFDE
:1037A000FFF71EFDC01B02281CD828688007F7D42D
:1037B0002078000727D5DFF80CA2844861690AF158
:1037C0006C0A81B101210160FFF70AFD074604E0A0
:1037D000FFF706FDC01B022804D8DAF800008007B6
:1037E000F6D510E082E0C0F80090FFF7F9FC07463C
:1037F00005E000BFFFF7F4FCC01B022876D8DAF81A
:1038000000008007F6D4207840075FD5DFF8B4A128
:1038100000270AF1380ADAF80000C0000BD4DAF801
:10382000001041F08051CAF80010DAF800000127BA
:1038300000F0805000906648016841F4807101609A
:103840000168C90512D4016841F480710160FFF775
:10385000C7FC009006E000BFFFF7C2FC0099401AC9
:1038600002287ED85A480068C005F5D55549207A07
:1038700068310870A06888B1FFF7B2FC009007E0DB
:10388000FFF7AEFC0099411A41F28830814268D8B6
:103890004C48683000688007F2D510E0FFF7A0FCC4
:1038A000009007E0FFF79CFC0099411A41F2883034
:1038B000814256D84348683000688007F2D42FB15F
:1038C000DAF8001021F08051CAF80010A069B8B3EE
:1038D000DBF80010C1F38101022949D00228C8F8A1
:1038E000609004D0FFF77CFC04463DE039E0FFF730
:1038F00077FC074605E000BFFFF772FCC01B642899
:103900002FD828688001F7D4D4E907010843616AF9
:1039100094F82C20890141EA02610843A16A2D4AEA
:10392000490802EB0141084331682B4A1140084322
:1039300030600120C8F86000FFF752FC044606E042
:103940003DE000BFFFF74CFC001B642809D8286845
:103950008001F7D533E000BFFFF742FC001B64286D
:1039600002D90320BDE8F88F28688001F4D426E04E
:103970000128F7D03068E26900F4800191421CD13F
:10398000226A00F03F01914217D147F6C071626A86
:103990000140B1EB821F10D1A26A4FF0FF3300F457
:1039A000403103EB5202B1EB024F06D194F82C10D8
:1039B00000F07060B0EB016F01D00120D2E7002071
:1039C000D0E700000838024000004742800E47421E
:1039D000007000400000FFFF0080BCF010B50068E0
:1039E0000B4641680D480140080CD870C1F304240F
:1039F0005C7001F03F049C70C1F34231197052B900
:103A000002F094FAD870587802F090FA58709878CA
:103A100002F08CFA9870002010BD00003FFFFF00FC
:103A200010B500680B4601680D480140C1F3054020
:103A30001870C1F306245C7001F07F049C70890D3E
:103A4000D97052B902F072FA1870587802F06EFA12
:103A50005870987802F06AFA9870002010BD000043
:103A60007F7F7F0010B5040002D0607F10B106E0B8
:103A7000012010BD00202077204600F041F80220F0
:103A800060772068C168C943C90632D5CA2141623E
:103A9000216853204862204602F05CFA20BB20686F
:103AA0008168164A11408160216888686268104305
:103AB000D4E904231A43104388602168E068086150
:103AC00020680169228941EA02410161204602F031
:103AD00065FA48B921680A6C22F480220A642168D8
:103AE0000A6CA3691A430A642268FF21516208B173
:103AF00010BD00200121617710BD0000BFFF8FFFC6
:103B000000680349884202D10249012008607047D9
:103B1000002800403C0E474270B50446007F0B462B
:103B2000012819D00126267702206077B2B1987853
:103B3000D97840EA014558781978000240EA4130C6
:103B400005432168CA204862216853204862204604
:103B500002F000FAD0B122E0022070BD5878C10610
:103B600003D500F0EF000A305870D87802F0E7F97A
:103B70000204587802F0E3F942EA0022987802F051
:103B8000DEF90243187842EA4035DAE70748054093
:103B900020684560204602F001FA00B96677226885
:103BA000FF2151620021217770BD00003FFFFF001F
:103BB0002DE9F0410446007F0D46012823D04FF047
:103BC000010884F81C800220607720680027806844
:103BD0004FEA4060D2B1002800DBEF70A878297866
:103BE00040EA01466878E978000240EA81500643DD
:103BF0002168CA204862216853204862204602F0AA
:103C0000A9F9B8B12CE00220BDE8F081002800DB62
:103C1000EF70287802F093F90204687802F08FF9C7
:103C200042EA0022A87802F08AF90243E87842EAE0
:103C30008056DDE70D4806402068066020688168F0
:103C400021F480218160D5E90101084321688A6857
:103C500010438860204602F0A1F908B984F81D805D
:103C60002268FF2151622777CEE700007F7F7F0027
:103C700070B5044643F657702168C860FFF7B0FA84
:103C800005464FF47A7606E0FFF7AAFA401BB042E9
:103C900001D9032070BD2068C0688006F4D50020DB
:103CA00070BD70B5040009D0606A002540B125617F
:103CB0006561A56294F8510040B10CE0012070BD2F
:103CC0006068B0F5827FF4D0E561F2E784F8505087
:103CD000204600F045F8022084F851002068016871
:103CE00021F040010160A088218900F4827001F474
:103CF00004410843A18901F400610843217C01F0DB
:103D000002010843217D01F001010843218B01F4E8
:103D100000710843217F01F03801084394F8201016
:103D200001F080010843218D01F40051084321680E
:103D30000860A069042101EA104094F8241001F001
:103D400010010843216848602068C16921F40061BE
:103D5000C1616565012084F85100002070BD00003C
:103D600010B586B0044614216846FCF7C0FC14491F
:103D70002068884221D113480021026842F4804221
:103D80000260006800F4804005900E481038026818
:103D900042F002020260006800F0020005904FF459
:103DA000604000900220CDE901010320039005202E
:103DB000049069460448FFF7BDF806B010BD000046
:103DC0000038004040380240000402402DE9FF4F17
:103DD00081B0044690F8500000260E9F1D46934681
:103DE0004FF0010901280FD04FF0010A84F850A0CC
:103DF000FFF7F6F9804694F85100616801280DD06C
:103E0000B1F5827F08D103E0022005B0BDE8F08F54
:103E1000A16809B9042801D00226C9E00298002847
:103E200065D0BBF1000FFBD0002DF9D094F8510004
:103E3000042802D0052084F8510000206065C4F8F1
:103E400038B0E587A58702992163E586A5862064B9
:103E5000606420680168490603D4016841F04001AC
:103E60000160E068B0F5006F606803D0F0B3012D29
:103E700047D081E008B1012D3CD1206B216800883A
:103E8000C860206B801C2063E08E401EE08631E01D
:103E90002068816889070FD5E18E69B1B9F1010FFA
:103EA0000AD1216B0988C160206B801C2063E08EE1
:103EB000401EE0864FF0000920688168C9070CD0D9
:103EC000E18F51B1C068A16B0880A06B801CA0631A
:103ED000E08F401EE0874FF00109FFF781F9A0EB6A
:103EE0000800B84206D3781C04D001E009E05BE08A
:103EF00003265BE0E08E0028CAD1E08F0028C7D1FE
:103F000040E0206B216800780873206B401C206320
:103F1000E08E401EE0862FE02068816889070FD57B
:103F2000E18E69B1B9F1010F0AD1216B09780173F2
:103F3000206B401C2063E08E401EE0864FF000099D
:103F400020688168C9070CD0E18F51B1C068A16BAE
:103F50000870A06B401CA063E08F401EE0874FF00C
:103F60000109FFF73DF9A0EB0800B84202D3781C25
:103F700002D0BAE7002FB8D0E08E0028CCD1E08F75
:103F80000028C9D142463946204602F037F818B118
:103F90000126202060650BE0A06818B92068C16880
:103FA00080680090606D08B1012601E084F851A09E
:103FB000002084F85000304627E710B5401EB0F1CD
:103FC000807F01D3012010BD4FF0E02460610F21FC
:103FD000601702F051FF0020A0610720206100203F
:103FE00010BD70477047000070B590F83C20012A62
:103FF00032D0012480F83C40022280F83D20036842
:104000005A689D6822F070060A6832435A60134B62
:1040100002689A4214D0B2F1804F11D0104B9A42EC
:104020000ED0104B9A420BD00F4B9A4208D00F4B38
:104030009A4205D00E4B9A4202D00E4B9A4204D1BE
:10404000496825F080031943916080F83D400021C4
:1040500080F83C10084670BD022070BD0000014091
:104060000004004000080040000C00400004014033
:10407000004001400018004010B5040003D094F83F
:104080003D0010B107E0012010BD002084F83C0085
:10409000204600F01FF8022084F83D00211D206812
:1040A00002F082FA012084F8460084F83E0084F889
:1040B0003F0084F8400084F8410084F8420084F80E
:1040C000430084F8440084F8450084F83D00002053
:1040D00010BD000008B5114A01681148914211D184
:1040E000016841F0100101600068002200F010003A
:1040F000009011463620FFF7F1F8BDE80840362061
:10410000FFF7DFB8074A914207D1016841F020016B
:104110000160006800F02000009008BD0010004021
:10412000403802400014004090F83D10012901D0B1
:1041300001207047022180F83D1000681149884233
:1041400014D0B0F1804F11D00F4988420ED00F49E2
:1041500088420BD00E49884208D00E49884205D0CB
:104160000D49884202D00D49884204D1816801F08E
:104170000701062903D0016841F001010160002018
:1041800070470000000001400004004000080040AB
:10419000000C0040000401400040014000180040B5
:1041A00090F83D10012901D001207047022180F8CC
:1041B0003D100168CA6842F00102CA6000681149F6
:1041C000884214D0B0F1804F11D00F4988420ED0F0
:1041D0000E4988420BD00E49884208D00D498842CA
:1041E00005D00D49884202D00C49884204D181682B
:1041F00001F00701062903D0016841F001010160C7
:10420000002070470000014000040040000800400A
:10421000000C004000040140004001400018004034
:1042200001680A6A41F211131A4207D10A6A9B1007
:104230001A4203D10A6822F001020A60012180F8C3
:104240003D1000207047704770B504460068016952
:104250004FF00005C943890715D4C168C9438907D0
:1042600011D4E91E01610120207720688069800750
:10427000204602D0FFF7E7FF04E000F0C1F8204637
:1042800000F066F9257720680169C943490717D40A
:10429000C168C943490713D46FF0040101610220CA
:1042A00020772068806910F4407F204602D0FFF715
:1042B000CAFF04E000F0A4F8204600F049F9257791
:1042C00020680169C943090716D4C168C9430907B1
:1042D00012D46FF008010161042020772068C069C2
:1042E0008007204602D0FFF7AEFF04E000F088F818
:1042F000204600F02DF9257720680169C943C906D9
:1043000017D4C168C943C90613D46FF01001016105
:10431000082020772068C06910F4407F204602D032
:10432000FFF791FF04E000F06BF8204600F010F971
:10433000257720680169C943C90708D1C168C94305
:10434000C90704D1891E0161204600F0A5F9206843
:104350000169C943090609D4C168C943090605D4DE
:104360006FF0800101612046FFF73BFE2068016984
:10437000C943490609D4C168C943490605D46FF049
:1043800040010161204600F0B1F920680169C9438C
:1043900089060BD4C168C943890607D46FF0200190
:1043A00001612046BDE87040FFF71CBE70BD0000F3
:1043B00010B586B0044614216846FCF798F90D49FB
:1043C0002068884214D10C480021026842F00202A1
:1043D0000260006800F0020005908020009002203A
:1043E000CDE90101CDE9031069460448FEF7A2FDBD
:1043F00006B010BD00080040303802400004024002
:10440000704770B5044690F83C0000260D46012820
:104410000FD0012084F83C006AB1042A1DD0082A7C
:104420002FD00C2A3FD00126002084F83C003046D3
:1044300070BD022070BD206802F028F920688169F3
:1044400041F0080181612068816921F004018161E6
:10445000206881692A69114311E0206802F046F959
:104460002068816941F4006181612068816921F4DB
:1044700080618161206881692A6941EA0221816144
:10448000D2E7206802F068F92068C16941F00801AC
:10449000C1612068C16921F00401C1612068C1695E
:1044A0002A69114311E0206802F08AF92068C16985
:1044B00041F40061C1612068C16921F48061C1617A
:1044C0002068C1692A6941EA0221C161ACE710B5DF
:1044D000040003D094F83D0010B107E0012010BDA6
:1044E000002084F83C00204600F01EF8022084F8EA
:1044F0003D00211D206802F057F8012084F8460095
:1045000084F83E0084F83F0084F8400084F84100BD
:1045100084F8420084F8430084F8440084F845009D
:1045200084F83D00002010BD08B5006806498842A7
:1045300008D10648016841F004010160006800F0FC
:104540000400009008BD0000000800404038024010
:104550007047000010B50446022249B104290ED06C
:10456000082913D094F84100012816D0012010BD6D
:1045700094F83E000128F9D184F83E200FE094F829
:104580003F000128F2D184F83F2008E094F8400071
:104590000128EBD184F8402001E084F84120012279
:1045A000206802F065F816492068164A884201D052
:1045B000904203D1436C43F4004343642068884233
:1045C00013D0B0F1804F10D00F4988420DD00F4961
:1045D00088420AD00E49884207D0904205D00D4942
:1045E000884202D00C49884204D1816801F0070159
:1045F000062903D0016841F001010160002010BDCF
:104600000000014000040140000400400008004098
:10461000000C0040004001400018004030B5044646
:104620000D460068002202F023F8194B41F21111E7
:1046300020688A10984202D0164B984209D1036A2A
:104640000B4206D1036A134203D1436C23F40043A7
:1046500043642068036A0B4206D1016A114203D108
:10466000016821F00101016001203DB1042D08D055
:10467000082D09D084F84100002030BD84F83E00A8
:10468000FAE784F83F00F7E784F84000F4E7000019
:10469000000001400004014010B500680F49884245
:1046A0001BD10F48416C002917D00E490A68496890
:1046B00000244464C06BFEF76BF90B484FF47A7228
:1046C000A0F27E41A0F8EC43A0F8E843A0F8EA434A
:1046D000BDE81040024800F00AB810BD00100040CC
:1046E000801F0020001001400A190020704738B5D3
:1046F000044690F84200202801D0022038BD61B164
:104700005AB10120206300206063204602F05AFA6B
:104710000028F3D1216B012901D0012038BD216887
:104720000A684968009121680C3151E8002F42F075
:10473000100241E80023002BF5D138BD18B503461F
:1047400090F84200202801D0022018BD61B15AB172
:104750000120186300205863184602F07BFA0028F5
:10476000F3D1196B012901D0012018BD19680A681D
:104770004968009119680C3151E8002F42F010028D
:1047800041E80024002CF5D118BD00002DE9F041CE
:104790000068284A0023904223D1274C4FF47A72B4
:1047A000A4F27E45B4F8E80308E0EE5C2654401C11
:1047B00080B2904200D100205B1C9BB28B42F4D3AC
:1047C000A4F8E803B4F8EC0308441C49A4F8EC038B
:1047D00001F6F420FFF78BFF194900204862BDE87D
:1047E000F081184A904203D11749FF20C870F6E7BC
:1047F000164A9042F3D1164AA2F59B655078C0EB59
:104800004014144404E0EE5CE7185B1CBE709BB2DD
:104810008B42F8D3401C84F820100A2800D10020D5
:104820005070BDE8F04104491E225A3901F5EC6090
:10483000FFF784BF001001400A1900208C140020EB
:1048400000100040005000401400002000480040CC
:10485000881D002010B504460068406994F8411096
:10486000C0F3C010212911D180B12068143050E864
:10487000001F21F0800140E80012002AF5D1A06B52
:1048800008B1FEF785F8204602F09AF820684069E2
:1048900094F84210C0F38010222911D180B1206811
:1048A000143050E8001F21F0400140E80012002AB7
:1048B000F5D1E06B08B1FEF76BF8204602F059F82D
:1048C000002010BD10B5040015D0242084F841004C
:1048D0002068C16821F40051C160204600F088F9C9
:1048E0000020606484F8410084F8420044F8300FEE
:1048F0006060207410BD012010BD000000680549F3
:10490000884206D104494FF47A7201F6F420FFF789
:10491000EEBE7047001001408C140020F8B501680D
:1049200004460868CA684B6910F00F0F4FF0000585
:1049300059D003F0010602F49077374365D0C107E0
:1049400005D0D10503D5616C41F0010161644107D7
:1049500005D5D90703D0616C41F00201616481077C
:1049600005D5D90703D0616C41F0040161640107EA
:1049700007D502F02001314303D0616C41F00801FA
:104980006164616C00293AD0800604D5900602D596
:10499000204602F023F820684069616CC0F3801063
:1049A000090700D460B3204601F0E3FF20684069A6
:1049B000400621D52068143050E8001F21F0400146
:1049C00040E80012002AF5D1E06BA8B16E490165FC
:1049D000E06BFEF726F8002811D0E06B016D01B006
:1049E000BDE8F040084783060FD593060DD5204655
:1049F000BDE8F84001F0F2BF2046FFF77FFFF8BDA9
:104A00002046FFF77BFF6564F8BD266B2023012E4F
:104A10007DD1C6067BD5D60679D508684868009052
:104A200048694FF00206400641D5E16B08684068CE
:104A30000004000CE8D0A28D8242E5D9E085C86967
:104A4000B0F5807F2DD020680C3050E8001F21F495
:104A5000807140E80012002AF5D12068143050E837
:104A6000001F21F0010140E80012002AF5D1206862
:104A7000143050E8001F21F0400140E80012002AE5
:104A8000F5D184F84230256320680C3050E8001FCF
:104A900021F0100140E80012002AF5D1E06BFDF78B
:104AA00077FF6663A08DE18D401A81B22AE0A08D68
:104AB000E18D401A81B2E08D0028A5D00029A3D055
:104AC00022680C3252E8000F20F4907042E8000790
:104AD000002FF5D12068143050E8002F22F0010299
:104AE00040E80027002FF5D184F842302563206884
:104AF0000C3050E8002F22F0100240E80023002B79
:104B0000F5D166632046FFF741FEF8BDFFE70506D5
:104B10002BD5150629D594F841002128F5D1A06898
:104B2000B0F5805F01D12069B0B1206A411C2162DB
:104B3000216800784860E08C401E0004000CE0848E
:104B4000E3D12068C16821F08001C1602068C1689C
:104B500041F04001C160D8E7206A0088C0F3080036
:104B60004860206A801C2062E5E74006CDD55006EB
:104B7000CBD5CA68204622F04002CA6084F8413092
:104B800000F0FEF9C1E700002968000870B50400D4
:104B900004D094F84100002510B106E0012070BD5A
:104BA00084F84050204600F081F8242084F8410029
:104BB0002068C16821F40051C160204601F070FFF7
:104BC0002068016921F4904101612068416921F068
:104BD0002A0141612068C16841F40051C1606564E7
:104BE000202084F8410084F842006563002070BDF5
:104BF00010B504460068244B2449254A984209D13F
:104C0000086820F40020086003211046FEF7D0F861
:104C1000342033E01F4B98420DD1086820F48010F7
:104C2000086099141C48FEF7C3F804211B48FEF7DE
:104C3000BFF8352022E01A4B984212D11348001DCC
:104C4000016821F0100101604FF4C0611046FEF7C9
:104C5000AFF8E06BFDF7F7FEA06BFDF7F4FE252043
:104C60000CE0104A90420DD1086820F480200860C2
:104C70004FF440610C48FEF79BF82720BDE8104038
:104C8000FEF70EBB10BD0000004C00404038024053
:104C9000000002400050004000080240000C0240AA
:104CA0000010014000480040000402402DE9F04798
:104CB00086B0064614216846FBF719FD7348724B0F
:104CC00032687249103803250227DFF8C4A1002496
:104CD0004FF001084FF008099A421ED10A6842F4C9
:104CE00000220A60096801F400210591016841F081
:104CF0000101016000688DE8A00100F00100CDE92C
:104D00000490694603955046FEF714F900221146B7
:104D10003420FEF7E3FA342032E05E4B9A4234D17D
:104D20000A6842F480120A60096801F48011059152
:104D3000016841F004010160016801F0040105917E
:104D4000016841F0080101600068694600F0080050
:104D5000059098148DE88101CDE903594E48FEF77E
:104D6000E9F804208DE88101CDE9035969464B48F3
:104D7000FEF7E0F8002211463520FEF7AFFA3520A5
:104D8000FEF79FFA06B0BDE8F087DFF814C10723ED
:104D9000624553D13D49091D0A6842F010020A607C
:104DA000096801F010010591016841F001010160FD
:104DB0000068029400F0010005904FF4C060CDE956
:104DC0000007CDE9035369465046FEF7B3F8364D68
:104DD00034484FF000672860C5E901744FF48068DB
:104DE000C5E903486C61AC61EC612C6228466C62D9
:104DF000FDF72AFF08B1FDF760FAF563AE632A4DAF
:104E0000284860357830E5E802074020A5E8110120
:104E1000254845F814496030AC61EC612C626C6245
:104E2000FDF712FF08B1FDF748FAB56300221146FD
:104E30002520AE63FEF752FA2520A1E71B4EB242B1
:104E4000A0D10A6842F480220A60096801F4802136
:104E50000591016841F0020101600068029400F0D0
:104E6000020005904FF44060CDE90007CDE90353FF
:104E700069460F48FEF75EF8002211462720FEF72C
:104E80002DFA27207CE70000004C0040403802400B
:104E9000000002400050004000080240000C0240A8
:104EA00000100140406402405820002000480040AB
:104EB0000004024090F84230202B01D002207047BD
:104EC00021B11AB10023036301F07CBE01207047B9
:104ED0007047704770B5044690F84100202801D013
:104EE000022070BD49B342B32162A284E284002053
:104EF0006064212384F84130A56B114BEB63A56BF3
:104F0000104B2B64A56B104BEB64A36B18652568E5
:104F100013462A1DA06BFDF701FF21686FF04000CA
:104F200008602068143050E8001F41F0800140E81C
:104F30000012002AF5D1002070BD012070BD0000D4
:104F400027690008696900083968000890F841304D
:104F5000202B01D00220704779B172B101628284A6
:104F6000C28400214164212180F841100068C16899
:104F700041F08001C16000207047012070470000AF
:104F800010B500680E4B00210E4A984201D11170F5
:104F900010BD0D4B984201D1517010BD0B4B984282
:104FA000FBD19170C11400220948FEF714F9094998
:104FB000BDE810403C2201F2C460FFF7BFBB000017
:104FC000004C004014000020004800400050004009
:104FD00000080240741800207047FEE7164890F859
:104FE0003D00012826D01549154800220B7C002BD6
:104FF000036819D0642B1DD90260087A4FF07C51E8
:1050000068B1012808D002280BD0032812D10A2148
:105010005FF00000FCF7E2BE0A210120FAE7012060
:1050200000E00020FCF7F2BEB3F5FA6F02D9FF23CF
:105030000B74026070470000A8050020C01E00200D
:10504000241400402DE9F05FD948077841788F4259
:1050500073D08346C7EB471101EB0B0595F8200091
:1050600029182C5C11F8022D4B78C878A978EE2904
:1050700030D1FF2AFCD1FC2BFAD1FF2CF8D1FF282C
:10508000F6D1B5F80510EB7891FA91FC6E7AB5F887
:105090000710A81C2A79C74CB24649BAF72B0BD087
:1050A000DFF81893DFF81083002609F10805012ABC
:1050B00071D0112ADCD10EE022756879A074A8792C
:1050C0006074E879E074287A20766676A87AA0760B
:1050D00000F00CFF63E1B12BFCD15246BAF1100F86
:1050E00004D0112AF6D01B2AF4D1E8E0B34A407A62
:1050F000103A04234FF0020A4FF00309BCF1000FED
:1051000009D0BCF1010F71D0BCF1030F6FD0BCF11D
:10511000060F6ED043E1DFF8A8C2AA4D09295ED080
:1051200006DC062926D0072936D00829D2D146E048
:105130000A2903D02329CDD10DE037E10028C9D1B8
:105140009B48A14B903881681960A049C0680860ED
:10515000FF20907123E10028BCD12078401CC0B210
:105160002070082800D12370227802210020FCF74B
:105170008AFD14E128B19648FEF7D6FF012020727F
:105180000DE1CCF800609248FFF74AF8207C78BB2C
:105190000121084610E0BAE028B18D48FEF7C4FFAF
:1051A00084F80890FBE0CCF800608948FFF738F8F5
:1051B000207CE8B901210020FCF710FEEFE020B1CF
:1051C0008348FEF7B1FF2672E9E0CCF80060804822
:1051D000FFF726F8207C58B92946012015E048B190
:1051E0007B48FEF7A1FF84F808A0D8E010E017E0A4
:1051F00007E01FE0CCF800607548FFF711F8207C4D
:1052000008B12674CBE029460020FCF7FFFDC6E07C
:10521000062938D1002836D1106900F0E3FE06E0F7
:10522000062930D178BB98E8070000F073FE00F043
:1052300079FFB4E061480830421C007809292AD07F
:1052400008DCA1F10301062936D2DFE801F0211ABA
:105250001210171F0C291DD004DC0A290BD00B29B2
:105260002AD111E00D291AD03C2925D11BE0865402
:1052700012E001210FE000F802A00DE000F802901A
:105280000AE0835408E026E0052104E0062102E05C
:10529000072100E0082181542878401C01E058B122
:1052A000401E287008E021210620FCF72DFE002278
:1052B0000121062000F00FFFFCF70EFD6FE0022930
:1052C0001AD007290CD0082969D1007ABCF1010F46
:1052D00002D088F8020062E0401C89F802005EE01B
:1052E000007ABCF1010F00F1010002D088F8010042
:1052F00055E089F8010052E0007ABCF1010F02D0BC
:1053000088F800004BE0173089F8030047E0A4F864
:105310002CC0BCF1010F05D0BCF1030F24D0BCF1AF
:10532000060F3CD1207D89F80300A17C89F801108B
:10533000E17C173889F80210C2B2C8460221012068
:10534000FCF725FD98F801000721401EC2B201209C
:10535000FCF71DFD98F802000821401EC2B2012092
:10536000FCF715FD2E701AE0227E88F80020607E82
:1053700088F80100A07E88F8020002210320FCF7D3
:1053800006FD98F801000721401EC2B20320FCF779
:10539000FEFC98F8022008210320FCF7F8FC7F1C93
:1053A000F8B20A2800D100208BF80000BDE8F09F79
:1053B000881D0020C01E0020F005002024000020D1
:1053C00024140040CDCCCC3D0C0000201000002067
:1053D000A805002070B5424888B090F82610491CF6
:1053E000CAB2002180F826203C2A10D990F8252046
:1053F000521CD2B280F8252080F826103C2A06D90B
:1054000090F82420521C80F8242080F82510EE22E9
:105410008DF80020B1228DF8012010228DF8022095
:105420008DF804108DF803108DF8051021218DF8EA
:10543000061090F82440072264236946632C05D99E
:10544000B4FBF3F230328DF807200822B4FBF3F5F9
:1054500003FB15450A23B5FBF3F530358D54B4FB3A
:10546000F3F503FB1544521C30348C54521C3A247F
:105470008C5410F8255F521CB5FBF3F630368E5471
:10548000B5FBF3F603FB1655521C30358D54521CF8
:10549000D2B28C544478521CB4FBF3F0D2B2303008
:1054A0008854521CD0B2B4FBF3F203FB12423032E8
:1054B0000A54401CC0B2FF220A54401CC0B2FC2354
:1054C0000B54401CC0B20A54401CC0B20A54401CC9
:1054D000C1B20022684601F079FC08B070BD00003E
:1054E000C01E002010B502464078411ECBB20221FA
:1054F00004E0545C491C2044C0B2C9B29942F8D3BC
:1055000010BD00002DE9F05F4D4890F83E30002BB3
:1055100015D090F83C20044602EB42074FF0000BF8
:1055200010F8271004EB870459B1012907D16188CD
:10553000491C89B26180282901D900F827B0BDE84B
:10554000F09F217901263F4D4FF00C0C4FF00209DE
:105550004FF00A0A0D2968D2DFE801F067070B1047
:105560001C2B222B672B67672F0085F801A0EE709C
:1055700034E085F801A085F803902FE00E226A70D0
:10558000EE7062796A72A279AA72E279EA72227A7C
:105590002A7323E00B226A70EE7062796A721DE052
:1055A00085F801C085F8039062796A72A279AA72BF
:1055B00014E085F801C0EE70F6E711226A70EE7013
:1055C00062796A72A279AA72E279EA72227A2A73FD
:1055D000627A6A73A27AAA73E27AEA73DFF8648065
:1055E0008146A8F126082971D8F80C006871010AD3
:1055F000A971010CE971000E28721248FFF772FFC1
:105600006A7808F1250150546A78491C0E48FFF762
:1056100061FC002893D1D8F80C10491CC8F80C1074
:10562000A4F802B009F8276089E7521CD1B2052915
:1056300000D1002100F83C1F5B1E83707FE7000053
:105640002C1D00203A000020801F00202DE9F0438F
:105650009349B3B0B1F8EA03B1F8E8430646A21B98
:10566000C0F57A732344B44201D3174600E01F46C5
:105670000A2F17DB4FF47A7711F800C0BCF1FA0F4C
:1056800013D0401C80B284420CD0B84200D100201C
:10569000B44201D3944600E09C46BCF10A0FEBDA19
:1056A000A1F8EA0333B0BDE8F083B44200D21A4651
:1056B0006B789A42F6DB0A1852780244B2FBF7F391
:1056C00007FB1323421CB2FBF7F507FB1522A1F8D9
:1056D000EA338D5C642D02D96425002201E00022AA
:1056E0000BE00E5C0DF1680C401C80B20CF80260FF
:1056F000B84200D10020521C92B2AA42F1D31AAD96
:105700009C4201D3E01A02E0C3F57A702044A1F86C
:10571000EC032846FFF7E6FE9DF869200DF16701CE
:10572000515C884201D05FA18BE09DF86C20604CF9
:10573000842A7CD006DC802A7CD0812A0BD0822A65
:1057400004D122E0852AADD0942A72D059A101A8B3
:10575000FAF714FE78E09DF86B000428A2D159A155
:1057600001A8FAF70BFE01A8FAF770FFC1B20122F7
:1057700001A801F02BFB94F83100002892D10A22F5
:1057800054495548FFF7A6FB8CE79DF8730000903D
:105790009DF872309DF8712050A101A8FAF7EEFD36
:1057A00001A8FAF753FFC1B2012201A801F00EFBD4
:1057B0009DF8760000909DF875309DF874204CA1FE
:1057C00001A8FAF7DBFD01A8FAF740FFC1B20122F8
:1057D00001A801F0FBFA9DF8790000909DF878305F
:1057E0009DF8772047A101A8FAF7C8FD9DF87A2017
:1057F0005AB149A101A8FAF7C1FD01A8FAF726FF9D
:10580000C1B2012201A801F0E1FA2948343090F830
:105810003C10491CC9B280F83C10052902D1002176
:1058200080F83C1010F83E1F491E01703AE714E062
:1058300000E030E0DDF86D000128A5D184F83100EA
:105840003BA101A8FAF79AFD01A8FAF7FFFEC1B241
:10585000012201A801F0BAFA24E7DFF8E080DFF8BE
:10586000E09000264FF6FF7705EB4600817A407AFC
:1058700007EA0121084480B202F0E8FE414602F046
:105880009BFD494602F0C2FF44F82600761CB6B2E2
:10589000042EE9D306E79DF8710084F8300001E793
:1058A0000A190020D0A3D1E9CAA7B0DC0D0A000074
:1058B000F81C0020C6E4CBFBCAFDBEDD3A307825DB
:1058C000780D0A00C9CFB5E7CED5CAD6C7EBC7F366
:1058D0000D0A000030000020801F0020C8EDBCFE33
:1058E000B0E6B1BE5625642E25642E25640D0A004F
:1058F000CBE3B7A8B0E6B1BE5625642E25642E25AD
:10590000640D0A00D0ADD2E9B0E6B1BE5625642ED2
:1059100025642E25640D0A00D3B2BCFED7D4BCEC9E
:10592000CAA7B0DC3078253032780D0A00000000BC
:10593000CED5CAD6D3A6B4F00D0A0000000020418F
:105940000000C8422DE9FF4100252B480095019534
:105950000295284C03954FF480310460C0E901158D
:105960000561057680F820502449C0E90A15012711
:10597000C7612E46C56080F830604761FCF719FFAB
:1059800008B1FCF79AFC0A20CDE9000769460296A7
:105990001948FCF763FE08B1FCF78FFCE06840F0A3
:1059A0000600E060E06840F03000E060E06840F44D
:1059B000C070E060E06840F44060E060206940F45E
:1059C00040302061E06840F44030E0600A48FCF775
:1059D000C1FF0B4805EB051100EBC102167140F841
:1059E0003160A2F886606D1CEDB2062DF2D3BDE8E1
:1059F000FF81000000200140D40300200100000FBF
:105A0000A40000200D4808B5016841F48001016040
:105A10000068002200F48000009011463A20FDF753
:105A20005DFC3A20FDF74DFC002211464620FDF7B3
:105A300055FCBDE808404620FDF743BC3038024025
:105A40002DE9F04387B014216846FAF750FE364836
:105A50000024016841F004010160016801F00401C3
:105A60000591016841F080010160016801F0800149
:105A70000591016841F001010160016801F0010137
:105A80000591016841F002010160016801F0020125
:105A90000591016841F0080101600068DFF88C9011
:105AA00000F008004FF42055059000222946484692
:105AB000FDF791FB1E4F0022D0213846FDF78BFBEE
:105AC000DFF8708041F21106002231464046FDF7B2
:105AD00082FB00950125CDE90254694648460195AF
